:100000000C948A060C94B2060C94B2060C94B206B8
:100010000C94B206189540EF189542800C94B206E5
:100020000C94B2060C94B2060C949D1A0C940C1B02
:100030000C94B2060C94B2060C94B2060C94B20660
:100040000C94B2060C947D1E0C94B2060C94B2066D
:100050000C94B2060C94B2060C94B2060C943E1D9D
:100060000C94B2060C94B2060C94B2060C94B20630
:100070000C94B2060C94B2060C94B2060C94B20620
:100080000C94881D0C94B2060C94B2060C94B20623
:100090000C94B2060C94B2060C94B2060C94B20600
:1000A0000C94B2060C94B2060C94B206A83FA800B9
:1000B000D5F08D14A1C881CFD9F1AF2000DB20C0CD
:1000C000A0D92181FFA80007080008081C1C3E3E9B
:1000D0007F1C3E081C00080008081C1C3E3E7F1CBC
:1000E0003E081C00080008081C1C3E3E7F1C3E0801
:1000F0001C00080008081C1C3E3E7F1C3E081C001B
:10010000080008081C1C3E3E7F1C3E081C0008001E
:1001100008001C003E007F003E001C00080008088C
:100120001C1C3E3E7F1C3E081C00080008001C00F2
:100130003E007F003E001C00080008001C003E003E
:100140007F003E001C00080008081C1C3E3E7F1C6F
:100150003E081C00080008081C1C3E3E7F1C3E0890
:100160001C00080008001C003E007F003E001C0030
:100170000808080002020702070002020700020244
:100180000700020002020702070002020700020045
:100190000700020002020700070002000700020039
:1001A0000700020002020700020207000202070223
:1001B0000700020002000700020207000202070215
:1001C0000700020002000700020007000200070209
:1001D0000700020308040E1F0402010000001F0EA6
:1001E000040102040000001E08060F1E0F06000690
:1001F0000912090600060912090600060912090675
:1002000000060912090600000000000000000000BE
:1002100000000000000000000000000000000000DE
:1002200000000000000000000000000000000000CE
:1002300000000000000000000000000000000000BE
:10024000000000060F1E0F06000609120906000630
:100250000912090600060912090600060912090614
:1002600000060F1E0F060000000000000000000046
:10027000000000000000000000000000000000007E
:10028000000000000000000000000000000000006E
:1002900000000000000000000000000000060F1E2B
:1002A0000F0600060F1E0F060006091209060006BB
:1002B0000912090600060912090600060F1E0F069C
:1002C00000060F1E0F0600000000000000000000E6
:1002D000000000000000000000000000000000001E
:1002E000000000000000000000000000000000000E
:1002F00000000000000000060F1E0F0600060F1E83
:100300000F0600060F1E0F0600060912090600065A
:100310000912090600060F1E0F0600060F1E0F0623
:1003200000060F1E0F060000000000000000000085
:1003300000000000000000000000000000000000BD
:1003400000000000000000000000000000000000AD
:1003500000060F1E0F0600060F1E0F0600060F1EDA
:100360000F0600060F1E0F060006091209060006FA
:100370000F1E0F0600060F1E0F0600060F1E0F06AB
:1003800000060F1E0F060000000000000000000025
:10039000000000000000000000000000000000005D
:1003A0000000000000000000000000060F1E0F0605
:1003B00000060F1E0F0600060F1E0F0600060F1E7A
:1003C0000F0600060F1E0F0600060F1E0F06000682
:1003D0000F1E0F0600060F1E0F0600060F1E0F064B
:1003E00000060F1E0F0600000000000000000000C5
:1003F00000000000000000000000000000000000FD
:10040000000000000006091209060006091209068C
:10041000000609120906000609120906000609125B
:1004200009060000000000000000000000000000BD
:1004300000000000000000000000000000000000BC
:1004400000000000000000000000000000000000AC
:100450000000000000000000000000000000000597
:1004600008040E1F0E04040E1F0E040000000000FE
:1004700007083E223E003E223E3E223E003E223EF5
:10048000000000000000003E223E00243E203E22EC
:100490003E00243E20000000000000003E223E00FE
:1004A0003A2A2E3E223E003A2A2E0000000000008A
:1004B000003E223E002A2A3E3E223E002A2A3E00DC
:1004C0000000000000003E223E000E083E3E223E9C
:1004D000000E083E000000000000003E223E002EFC
:1004E0002A3A3E223E002E2A3A0000000000000078
:1004F0003E223E003E2A3A3E223E003E2A3A00007C
:1005000000000000003E223E00023A063E223E006D
:10051000023A06000000000000003E223E003E2A93
:100520003E3E223E003E2A3E000000000000003E0B
:10053000223E002E2A3E3E223E002E2A3E00000091
:1005400000000000243E20003E223E243E20003ECB
:10055000223E00000000000000243E2000243E2037
:10056000243E2000243E2000000000000000243E25
:1005700020003A2A2E243E20003A2A2E00000000B5
:10058000000000243E20002A2A3E243E20002A2A81
:100590003E00000000000000243E20000E083E2423
:1005A0003E20000E083E00000000000000243E2017
:1005B000002E2A3A243E20002E2A3A000000000095
:1005C0000000243E20003E2A3A243E20003E2A3AE3
:1005D00000000000000000243E2000023A06243EF5
:1005E0002000023A0600000000000000243E200027
:1005F0003E2A3E243E20003E2A3E0000000000002D
:1006000000243E20002E2A3E243E20002E2A3E00BA
:100610000000000000003A2A2E003E223E3A2A2E18
:10062000003E223E000000000000003A2A2E002476
:100630003E203A2A2E00243E200000000000000048
:100640003A2A2E003A2A2E3A2A2E003A2A2E000062
:1006500000000000003A2A2E002A2A3E3A2A2E00E4
:100660002A2A3E000000000000003A2A2E000E0850
:100670003E3A2A2E000E083E000000000000003A1C
:100680002A2E002E2A3A3A2A2E002E2A3A0000005C
:10069000000000003A2A2E003E2A3A3A2A2E003E56
:1006A0002A3A000000000000003A2A2E00023A0612
:1006B0003A2A2E00023A06000000000000003A2A02
:1006C0002E003E2A3E3A2A2E003E2A3E000000001E
:1006D0000000003A2A2E002E2A3E3A2A2E002E2A08
:1006E0003E000000000000002A2A3E003E223E2A72
:1006F0002A3E003E223E000000000000002A2A3E62
:1007000000243E202A2A3E00243E20000000000053
:1007100000002A2A3E003A2A2E2A2A3E003A2A2E91
:10072000000000000000002A2A3E002A2A3E2A2A51
:100730003E002A2A3E000000000000002A2A3E0057
:100740000E083E2A2A3E000E083E0000000000006F
:10075000002A2A3E002E2A3A2A2A3E002E2A3A0051
:100760000000000000002A2A3E003E2A3A2A2A3EC3
:10077000003E2A3A000000000000002A2A3E000243
:100780003A062A2A3E00023A060000000000000055
:100790002A2A3E003E2A3E2A2A3E003E2A3E0000E9
:1007A00000000000002A2A3E002E2A3E2A2A3E008F
:1007B0002E2A3E000000000000000E083E003E22EF
:1007C0003E0E083E003E223E000000000000000EEB
:1007D000083E00243E200E083E00243E200000007B
:1007E000000000000E083E003A2A2E0E083E003A95
:1007F0002A2E000000000000000E083E002A2A3EBB
:100800000E083E002A2A3E000000000000000E08EC
:100810003E000E083E0E083E000E083E000000009E
:100820000000000E083E002E2A3A0E083E002E2A36
:100830003A000000000000000E083E003E2A3A0E7A
:10084000083E003E2A3A000000000000000E083E6C
:1008500000023A060E083E00023A060000000000C0
:1008600000000E083E003E2A3E0E083E003E2A3E94
:10087000000000000000000E083E002E2A3E0E0878
:100880003E002E2A3E000000000000002E2A3A0002
:100890003E223E2E2A3A003E223E0000000000008A
:1008A000002E2A3A00243E202E2A3A00243E200020
:1008B0000000000000002E2A3A003A2A2E2E2A3A82
:1008C000003A2A2E000000000000002E2A3A002ADA
:1008D0002A3E2E2A3A002A2A3E000000000000008C
:1008E0002E2A3A000E083E2E2A3A000E083E00003C
:1008F00000000000002E2A3A002E2A3A2E2A3A0042
:100900002E2A3A000000000000002E2A3A003E2A5B
:100910003A2E2A3A003E2A3A000000000000002E3B
:100920002A3A00023A062E2A3A00023A060000004D
:10093000000000002E2A3A003E2A3E2E2A3A003EAF
:100940002A3E000000000000002E2A3A002E2A3E17
:100950002E2A3A002E2A3E000000000000003E2A07
:100960003A003E223E3E2A3A003E223E000000006F
:100970000000003E2A3A00243E203E2A3A00243E4F
:1009800020000000000000003E2A3A003A2A2E3ED5
:100990002A3A003A2A2E000000000000003E2A3ABF
:1009A000002A2A3E3E2A3A002A2A3E000000000081
:1009B00000003E2A3A000E083E3E2A3A000E083E4B
:1009C000000000000000003E2A3A002E2A3A3E2A8B
:1009D0003A002E2A3A000000000000003E2A3A00A9
:1009E0003E2A3A3E2A3A003E2A3A00000000000021
:1009F000003E2A3A00023A063E2A3A00023A06002F
:100A00000000000000003E2A3A003E2A3E3E2A3AFC
:100A1000003E2A3E000000000000003E2A3A002E60
:100A20002A3E3E2A3A002E2A3E0000000000000026
:100A3000023A06003E223E023A06003E223E0000F6
:100A40000000000000023A0600243E20023A0600A0
:100A5000243E2000000000000000023A06003A2A6E
:100A60002E023A06003A2A2E000000000000000282
:100A70003A06002A2A3E023A06002A2A3E000000D0
:100A800000000000023A06000E083E023A06000E80
:100A9000083E00000000000000023A06002E2A3A3C
:100AA000023A06002E2A3A00000000000000023A36
:100AB00006003E2A3A023A06003E2A3A00000000AA
:100AC000000000023A0600023A06023A0600023A24
:100AD0000600000000000000023A06003E2A3E0226
:100AE0003A06003E2A3E00000000000000023A06DE
:100AF000002E2A3E023A06002E2A3E000000000088
:100B000000003E2A3E003E223E3E2A3E003E223E5D
:100B1000000000000000003E2A3E00243E203E2A45
:100B20003E00243E20000000000000003E2A3E005F
:100B30003A2A2E3E2A3E003A2A2E000000000000EB
:100B4000003E2A3E002A2A3E3E2A3E002A2A3E0035
:100B50000000000000003E2A3E000E083E3E2A3EF5
:100B6000000E083E000000000000003E2A3E002E5D
:100B70002A3A3E2A3E002E2A3A00000000000000D9
:100B80003E2A3E003E2A3A3E2A3E003E2A3A0000D5
:100B900000000000003E2A3E00023A063E2A3E00C7
:100BA000023A06000000000000003E2A3E003E2AF5
:100BB0003E3E2A3E003E2A3E000000000000003E6D
:100BC0002A3E002E2A3E3E2A3E002E2A3E000000EB
:100BD000000000002E2A3E003E223E2E2A3E003E0D
:100BE000223E000000000000002E2A3E00243E208D
:100BF0002E2A3E00243E20000000000000002E2A85
:100C00003E003A2A2E2E2A3E003A2A2E00000000EC
:100C10000000002E2A3E002A2A3E2E2A3E002A2AC2
:100C20003E000000000000002E2A3E000E083E2E6E
:100C30002A3E000E083E000000000000002E2A3E62
:100C4000002E2A3A2E2A3E002E2A3A0000000000EA
:100C500000002E2A3E003E2A3A2E2A3E003E2A3A24
:100C6000000000000000002E2A3E00023A062E2A54
:100C70003E00023A06000000000000002E2A3E005E
:100C80003E2A3E2E2A3E003E2A3E00000000000082
:100C9000002E2A3E002E2A3E2E2A3E002E2A3E00FC
:100CA000000000000000080B00020202000009041E
:100CB00000000102020000052400100105240101CA
:100CC0000104240206052406000107058103100023
:100CD0004009040100020A0000000705020240006A
:100CE000000705830240000004030904120100020A
:100CF000EF020140412336800001010203014172ED
:100D00006475696E6F204C4C430041726475626F6C
:100D10007900941E11241FBECFEFDAE0DEBFCDBFF5
:100D200013E0A0E0B1E0E6E3F0E602C005900D922A
:100D3000A439B107D9F729E0A4E9B3E001C01D92B5
:100D4000AF39B207E1F716E0CAE8D6E004C0219750
:100D5000FE010E94BC2EC938D107C9F70E94E71EC8
:100D60000C9419300C9400001092F8028091EC025F
:100D7000823069F0843051F48091EE028C3030F48E
:100D80008F5F8093EE0281E08093F8020895809156
:100D9000EE028131D8F38150F4CF9091E80299238B
:100DA00071F0891760F4981B9093E8028091E90232
:100DB00081110DC080E68093E90280E008951092D1
:100DC000E80281E08093FA021092FB0208958435D4
:100DD000A0F7805EF0CFCF93DF9300D000D000D09B
:100DE000CDB7DEB7E7EEF2E081859285A385B485C5
:100DF0009D012F5F3F4F85859685A785B089AD0101
:100E00004F5F5F4F3A8329835C834B833A815C81D8
:100E10006EE07CE080E090E026960FB6F894DEBFAE
:100E20000FBECDBFDF91CF91089528E030E0E7E914
:100E3000F9E0A0E0B0E0BD0180E00E9472070E94EE
:100E40006107BD011296A20FB31F8217930799F392
:100E50008F5F9F4F21F4AF5FBF40DB0178F00E94AE
:100E6000DD0940E05091F9076091FA0780E20E94A5
:100E70006607599A0E94A909A0E0B0E07CEF0E94A1
:100E8000DD094A2F5091F9075B0F6091FA07611D48
:100E900082E00E946607832F71FD822F70FD819191
:100EA0000E947E07759518F42150304019F0119674
:100EB000AA2389F7599A0E94A90921153105F9F643
:100EC00008950E94A907982F0C94AF0759980E9483
:100ED0007E07862F0E947E07852F0E947E07842F23
:100EE0000C947E07462F5091F907570F6091FA072F
:100EF000681F83E00E9466071EBC08958EBD000037
:100F00008EB50DB407FEFCCF0895E7E9F9E0A8E03F
:100F1000B0E060E070E080E00E9472079D01AF01E8
:100F200060E00E94A4078217930751F4D901FA01E7
:100F300060E00E94A90781931197D9F761E0F1CF92
:100F40000E94AF07862F08950E94A907982F0C943E
:100F5000A9070DB407FEFDCF8EB51EBC08950DB4D4
:100F600007FEFDCF8EB5599A0895FC018091F807D0
:100F7000882311F13FB7F89482E08093E900209133
:100F8000F200822F90E01816190614F481E090E028
:100F9000882339F0289844E64093F7074091F10000
:100FA0004083222339F02091F200211103C02BE667
:100FB0002093E8003FBF08958FEF9FEF08952FB76C
:100FC000F89483E08093E9009091E800892F807283
:100FD00095FF04C09091F20080E4891B2FBF089513
:100FE0008091EF0781110DC082E08093EB0784E0D0
:100FF0008093EC071092EE071092ED0781E080934A
:10100000EF078BEE97E00895CF93DF931F92CDB754
:10101000DEB76983DC01ED91FC910280F381E02D64
:1010200041E050E0BE016F5F7F4F09950F90DF9167
:10103000CF91089583E08093E9008091F2008823A6
:1010400019F08AE38093E80008950E94DF0790E09A
:101050000895CF93DF931F92CDB7DEB7FC0184854F
:10106000958597FD08C02FEF3FEF358724870F90B8
:10107000DF91CF910895CE0101960E94B5070197A7
:1010800019F4898190E0F3CF8FEF9FEFF0CF0F93AA
:101090001F93CF93DF931F92CDB7DEB78C01FC0176
:1010A0008485958597FF0BC0CE0101960E94B507F8
:1010B000019771F4898190E0F80195878487F801A0
:1010C000848595850F90DF91CF911F910F910895A1
:1010D0008FEF9FEFF1CFFC018485958597FD0BC0C5
:1010E0009FB7F89482E08093E9008091F2009FBF5F
:1010F00090E0019608959FB7F89482E08093E9000C
:101100008091F2009FBF90E008954091E5075091D3
:10111000E6072091E3073091E40742175307B4F440
:101120009091E8009570E1F39091E80092FD19C06C
:101130008093F1008091E5079091E60701968F7307
:101140009927892B19F48EEF8093E8008091E507A9
:101150009091E60701969093E6078093E50781E07A
:10116000089580E00895EF92FF920F931F93CF931D
:10117000DF93F82E192FE62E042F81E0860F880FBB
:101180000E94850883E00E948508CF2DD12FEC0EA8
:10119000FD2EF11CCE15DF05B9F007FF13C0FE01CF
:1011A00084910E948508182F80E00E948508812381
:1011B00021968111EFCFDF91CF911F910F91FF9079
:1011C000EF9008958881EDCF81E0F5CFDF92EF9227
:1011D000FF920F931F93CF93DF93D82E8A01EB01D9
:1011E0007B01E40EF51ECE15DF0559F0D7FE12C0C7
:1011F000FE0184910E94850821968111F4CF0FEFA2
:101200001FEFC801DF91CF911F910F91FF90EF90D9
:10121000DF9008958881EECF0F931F93CF93DF93D4
:101220001F92CDB7DEB782E0898342E450E066EAE0
:101230007CE080E80E94E6080E94F007DC0112963C
:101240000D911C910115110589F0D801ED91FC91CA
:101250000280F381E02DBE016F5F7F4FC8010995C9
:1012600097FD04C0F80100851185ECCF89810F90AE
:10127000DF91CF911F910F910895615030F020912F
:10128000F100FC0120830196F8CF289884E6809332
:10129000F7070895480F592F511D141615060CF025
:1012A0003CC080389105CCF597FF02C090E080E00B
:1012B0004138510514F040E850E0481BFB0177FD30
:1012C000379633E0F595E7953A95E1F7F695FE2FD9
:1012D000EE27F795E795E80FF91FEF52FC4F67707F
:1012E000772781E090E001C0880F6A95EAF7382FF0
:1012F000222351F0213089F4415078F08191DF01AF
:101300001197832B8C93F8CF8095415030F09191B9
:10131000DF01119798239C93F8CF089580389105A9
:10132000B8F460347105A0F490E121E061FD24E09F
:1013300060FD220F62FD2295687F969FD0011124E7
:10134000A80FAF52BC4F0C90022A40FF02260C920D
:101350000895599885E00E947E0780E00E947E07EC
:1013600080FDFBCF599A0895462F5091D107570F12
:101370006091D207681F83E00E9466071EBC089533
:101380000F931F93CF93DF93EA0189010E94B40961
:10139000FE010150104021F00E94A9078193F9CF6E
:1013A0000E94AF078083DF91CF911F910F91089525
:1013B00059980E947E07599A089586E00C94D8099E
:1013C000FC010E947B0A319728F068517C4F8F4FB7
:1013D0009F4FF9CFAB01FC010E947B0A6417750790
:1013E0008E079F07C8F3089585E090E00C94E0090C
:1013F0008F929F92AF92BF92CF92DF92EF92FF9225
:101400000F931F93CF93DF936C017B018A0180912F
:10141000E602882309F45AC08091F807882309F46A
:1014200055C08091EA0780FF05C08091E00082608E
:101430008093E000E801B12C8AEFA82E93E0892E7A
:101440002AE3922E209711F4BB20C9F10E94DF07F6
:10145000811108C0AA94AA20C9F181E090E00E94FD
:10146000E009F0CF8C171D0611F00CF08C2F9FB700
:10147000F8948092E9002091E80025FD02C09FBF0A
:10148000E1CF282F30E0C21BD30BF701815020F0B1
:1014900041914093F100FACFE20EF31EBB2021F000
:1014A0009092E800B12CEBCF8091E80085FDE7CF6A
:1014B0009092E800BB24B394209709F3F3CF5D9892
:1014C00084E68093E907101611063CF081E090E075
:1014D000F6019383828310E000E0C801DF91CF9191
:1014E0001F910F91FF90EF90DF90CF90BF90AF9042
:1014F0009F908F900895ADECB3E02FB7F8947D9155
:101500008D919C9166B52FBFA89B05C06F3F18F4C5
:101510007F5F8F4F9F4F22E0660F771F881F991FB5
:101520002A95D1F708954F925F926F927F92AF9272
:10153000BF92CF92DF92EF92FF920F931F93DB0146
:10154000FC01C080D180E280F38026013701770C56
:101550004408542C32019601A701642D742D842D6A
:10156000942D00E10E94DA2FF22FE32F8D01BB0FA3
:10157000220B330B98011127002728013901770C22
:101580004408542C320158016901E42CF42C042D38
:10159000142D2F2F3E2F0E94052FB901CA011F9134
:1015A0000F91FF90EF90DF90CF90BF90AF907F9022
:1015B0006F905F904F900895CF92DF92EF92FF92DD
:1015C0000F931F93CF93DF9300D000D0CDB7DEB73A
:1015D000282F30E090910F08492F092E000C550B51
:1015E000241735070CF072C0915090930F08E091CA
:1015F0000F080E2E000CFF0BE55EFC4F8081082EBD
:10160000000C990BAA0BBB0BDC0199278827898357
:101610009A83AB83BC8360E270E0CE0101960E94A6
:10162000930A009107081091080820910908309149
:101630000A08DC01CB01800F911FA21FB31F80930A
:10164000070890930808A0930908B0930A08E0914E
:101650000F080E2E000CFF0BE55EFC4F8081082E5C
:10166000000C990BAA0BBB0BDC01992788278983F7
:101670009A83AB83BC8360E270E0CE0101960E9446
:10168000930A00910B0810910C0820910D083091DD
:101690000E0868017901C61AD70AE80AF90AD701C3
:1016A000C60180930B0890930C08A0930D08B0938B
:1016B0000E080F900F900F900F90DF91CF911F9118
:1016C0000F91FF90EF90DF90CF900895421753074E
:1016D0000CF08DCF9F5F89CF4F925F926F927F9278
:1016E0008F929F92AF92BF92CF92DF92EF92FF9232
:1016F0000F93CF93DF93CDB7DEB760970FB6F89413
:10170000DEBF0FBECDBF4090F0025090F10260905E
:10171000F2027090F3028AE3681A7108E091EE0217
:10172000F0E0E55EFC4F8081082E000C990BAA0BBF
:10173000BB0BDC019927882789839A83AB83BC8301
:1017400060E170E0CE0101960E94930A20E030E053
:1017500049E150E00E94C92E00E10E94F32F4901A7
:101760005A0173016201C80CD91CEA1CFB1C809150
:10177000EC02823009F092C098E0E90EF11C8090F2
:10178000FF0790900008A0900108B0900208C501E2
:10179000B40120E030E04CE350E00E94C92E00E1AB
:1017A0000E94F32F2D873E874F87588B4090FB0771
:1017B0005090FC076090FD077090FE07C701B601CE
:1017C000641975098609970920E030E044E853E080
:1017D0000E94C92E0E94F32F2D833E834F8358878A
:1017E000CD80DE80EF80F8848D859E85AF85B889B9
:1017F000C81AD90AEA0AFB0AC501B4012AEC31E089
:1018000040E050E00E94C92E0E94F32F2D833E83BA
:101810004F8358878D819E81AF81B885480E591EB0
:101820006A1E7B1E4092FB075092FC076092FD07E8
:101830007092FE07C701B6012AEC31E040E050E0AB
:101840000E94C92E0E94F32F2D833E834F83588719
:101850008D819E81AF81B885880E991EAA1EBB1E00
:101860008092FF0790920008A0920108B0920208AF
:1018700060960FB6F894DEBF0FBECDBFDF91CF915B
:101880000F91FF90EF90DF90CF90BF90AF909F901F
:101890008F907F906F905F904F900895A8E0EA1A24
:1018A000F1086DCF0F9300FD0FEF382F67FF02C0D7
:1018B000260F60E087FF02C0480F30E090E8931BDE
:1018C000491708F4942F80E4861B281708F4822F08
:1018D000860F21E061FD24E060FD220F62FD22956C
:1018E000219571E081FD74E080FD770F82FD729596
:1018F0007195522F5095472F40958150669566956A
:101900006695869586958695E1EDF3E0A0E86A9F59
:10191000E00DF11D1124E30FF11D861B511101C0D3
:101920008F5F411101C08F5F30E8391B2023642F86
:101930006023882319F4752B62231CC0552349F0BA
:10194000A92F00800522022A0192AA95D1F7E30F60
:10195000F11D8A9569F0A92FA0FF02C0A39501C0CF
:1019600001930193A250E1F7E30FF11D8A9599F7D6
:10197000442331F000800722062A01929A95D1F77C
:101980000F910895FC019081992311F0915090835B
:101990000895282F30E0803460F0803C70F080E0C3
:1019A00091E0821B930B23E0959587952A95E1F7AB
:1019B00008958695869586950895C9018054910964
:1019C00060E170E00E94A82E089714F087E0089567
:1019D00088E0089530E73CBDDC0130E8439FC0015A
:1019E0001124A80FB91F5E91352F6111372F3C9339
:1019F000C89500C052235EBD0197A9F704D003D05B
:101A000030E50DB43CBD08958091C603882329F0CC
:101A100081508093C60381E0089580E0089580910D
:101A2000D9078093C4039FB19095907F669B98607F
:101A30001C9B94609093D9078095892308950F93F8
:101A40001F93EAE4F2E080858823F9F04091F002E8
:101A50005091F1026091F2027091F30280819181C4
:101A6000A281B3818C019D01041B150B260B370B42
:101A7000B901A8014115510561051AEF71076CF410
:101A8000B45F80839183A283B383399632E0E737D2
:101A9000F307C9F61F910F91089541305105610573
:101AA00076409CF3BC50EDCF8091F0029091F10212
:101AB000A091F202B091F3020097A1052AEFB207BC
:101AC0000CF47FC00197A105B6400CF479C080E00A
:101AD00090E0A0E0BAEF4091F0025091F1026091E5
:101AE000F2027091F302480F591F6A1F7B1F409347
:101AF000F0025093F1026093F2027093F30240916E
:101B0000FB075091FC076091FD077091FE07480F9D
:101B1000591F6A1F7B1F4093FB075093FC0760937C
:101B2000FD077093FE07E1E6F8E040855185628588
:101B30007385480F591F6A1F7B1F40875187628733
:101B400073877F9629E0E739F20779F7E9EAF2E04F
:101B50004181528163817481480F591F6A1F7B1F25
:101B600041835283638374833A9622E0EB3DF2070C
:101B700079F7E7E7F2E04181528163817481480F90
:101B8000591F6A1F7B1F41835283638374833A9674
:101B900022E0E93AF20779F7EAE4F2E027E732E0F7
:101BA0004081518162817381480F591F6A1F7B1FD9
:101BB000408351836283738339962E173F0781F7E1
:101BC000089580E090E0A0E0B6E085CF109271002B
:101BD0001092C1001092B0031092E1070895EF92A5
:101BE000FF920F931F93CF93DF938091B0038823CD
:101BF00081F08091BD0381110CC06091BE03709192
:101C0000BF038091C0032DE030E041EB53E00E9420
:101C1000C0098091E1078823C1F08091A50381115B
:101C200014C06091C1037091C2038091C30324E08A
:101C300030E042EA53E00E94C0098091A3039091F2
:101C4000A403892B11F41092E10704E0C1EBD3E067
:101C5000F12CE12CFE01119181919191EF01892BE1
:101C600011F40E94E60D812F8695E81AF1080150C3
:101C700089F7F092AF03E092AE03DF91CF911F910D
:101C80000F91FF90EF900895CF939091E1079923E2
:101C900011F0662389F190919909992369F1909146
:101CA000D307992349F190E0FC01EE0FFF1FE80FE5
:101CB000F91FE050FD4F80819181A2818093C10383
:101CC0009093C203A093C303C1E0C093E1070E94B5
:101CD000EF0D8091710081110FC080E094E090932E
:101CE0009900809398001092950010929400C093F0
:101CF000C10082E080937100CF9108958091B0037C
:101D0000811104C08091E107882341F080919F03F5
:101D10008F5F833020F480939F0381E008951092B9
:101D20009F030E94EF0D8091BD03882399F081509D
:101D30008093BD0381110EC08091BE039091BF03BB
:101D4000A091C0030D96A11D8093BE039093BF0385
:101D5000A093C0038091A5038823F9F2815080935A
:101D6000A5038111DACF8091C1039091C203A091A4
:101D7000C3030496A11D8093C1039093C203A09353
:101D8000C303CBCFCF938093DE078091980988233C
:101D900011F18091D3078823F1F00E94E60D109293
:101DA000BE031092BF031092C0031092BD03C1E0A6
:101DB000C093B0030E947E0E80E094E0909399005F
:101DC000809398001092950010929400C093C100E7
:101DD00082E080937100CF9108954F925F926F924D
:101DE0007F928F929F92AF92BF92CF92DF92EF92AB
:101DF000FF920F931F93CF93DF9300D0CDB7DEB741
:101E0000A1EDB3E03A01862EE02FBB24482E969533
:101E10009695969541E0E1FC44E0E0FC440FE2FC3D
:101E200042955FEF549F6001C094D094F594E7947D
:101E3000F594E794F594E7943E2D3F3F4CF43095AC
:101E4000931B20FD330F389F600C711C8B1C3FEFE0
:101E500017FF0BC0400E20FF02C0000F111F601AB9
:101E6000710A8B0817FD8394EE2750E835030E0E98
:101E7000A00DB11D5E1B451608F0452E57E0531B03
:101E8000591714F4952FB39450E85419682F7727F5
:101E900021FD02C06419770B20FF02C0660F771F77
:101EA0001124A32E211152C0F301292F31158CF4D6
:101EB000A058BF4F142D8591849F0C910D210129AD
:101EC0000D931A95C1F711242A95A419B109E60FAB
:101ED000F71F2223E9F0CF93DF93ED01C058DF4FC6
:101EE000142D8591849F0C910C2100290D9308815C
:101EF0000D21012909931A95A1F71124A50FB11DF0
:101F0000C50FD11DE60FF71F2A9551F7DF91CF912D
:101F1000BB2041F08591849F0C910C2100290D93E9
:101F20004A94C1F711240F900F90DF91CF911F9128
:101F30000F91FF90EF90DF90CF90BF90AF909F9068
:101F40008F907F906F905F904F900895213009F0AF
:101F500050C0F301292F3115B4F4A058BF4FF42C11
:101F600085910591849FC001049F8001EC9010959C
:101F7000E122E92AED92FA9499F711242A95A419FD
:101F8000B109E60FF11D222319F1CF93DF93ED0183
:101F9000C058DF4FF42C85910591849FC001049FA8
:101FA0008001EC900095E022E82AED92E8801095FF
:101FB000E122E92AE992FA9471F71124A50FB11DE3
:101FC000C50FD11DE60FF11D2A9521F7DF91CF91A5
:101FD000BB2069F085910591849FC001049F800119
:101FE000EC900095E022E82AED924A9499F71124AA
:101FF0009ACF0090D107700C0090D207801C19C0B6
:10200000599833E03EBD660E771E811C5524841519
:1020100009F053940CD08EBC07D07EBC05D06EBCAA
:1020200003D01EBC03D00895C8950000C895C8957C
:102030000895661A770A8108E3DFA1141CF099233A
:1020400071F564C0A058BF4FE42C20FD0CC00EB544
:102050001EBC049F9C909D2091289D92C89500C015
:10206000EA94A9F711C00EB51EBC049F8001DEDF03
:10207000CEB41EBCC49E60019C90D0949D20912A39
:102080009D92C895EA9479F71124A419B1099A95FB
:1020900009F45CC0552019F00DB4599AB1DFFD0167
:1020A000E058FF4FE42C20FD0EC00EB51EBC049F6F
:1020B0009C909C2090289D9290809D2091289192A8
:1020C000EA9499F716C00EB51EBC049F80019C903F
:1020D000D080AEDF00C0CEB41EBCC49E0094902061
:1020E000902A9D921094D120D12AD1920000EA9496
:1020F00051F71124A50FB11D9A9561F6BB2031F15E
:10210000552021F00DB4599A7BDFC89520FD0CC0F5
:102110000EB51EBC049F9C909C2090289D92C89553
:1021200000C04A94A9F712C00EB51EBC049F8001DE
:102130007DDF9EB51EBC949F902D9C90909599221A
:10214000902A9D92C8954A9479F7C8951124599A76
:102150000DB4E9CE6F927F928F92AF92CF92DF92C1
:10216000EF92FF920F931F93803891050CF03AC0C5
:10217000603471050CF036C0A42FB0E0FD01E80F0B
:10218000F91F1E161F060CF02DC0E22FF0E03F01D4
:10219000660E771E161417040CF024C03701802E2B
:1021A0007B018C019E2F8827842B9B2BC114D1048B
:1021B000A1F0269526952695A0FC220F249FF001DC
:1021C000ED9D700C811CFC9D700C811CFD9D800C94
:1021D000EC9D600C711C1124811C2A2D682DA3011B
:1021E0000E94ED0E1F910F91FF90EF90DF90CF9026
:1021F000AF908F907F906F9008957F928F929F9273
:10220000AF92CF92DF92EF92FF920F931F93CF93F3
:10221000DF93EC014B016901E42E842FB9010E9488
:10222000B4090E94A907782E0E94AF074E2D96018F
:102230002E5F3F4F4F4F93E0A92E68017901042F85
:10224000282F472DB401CE010E94AA10DF91CF9113
:102250001F910F91FF90EF90DF90CF90AF909F90E4
:102260008F907F9008957F928F929F92AF92CF929E
:10227000DF92EF92FF920F931F93CF93DF93EC01C6
:102280004B016901E42E842FB9010E94B4090E9418
:10229000A907782E0E94AF074E2D96012E5F3F4F63
:1022A0004F4F92E0A92E68017901042F282F472D66
:1022B000B401CE010E94AA10DF91CF911F910F911E
:1022C000FF90EF90DF90CF90AF909F908F907F9096
:1022D0000895AF92CF92DF92EF92FF920F93690130
:1022E000FA01459125917F01FF0F000BAA24A394C9
:1022F0000E94AA100F91FF90EF90DF90CF90AF90C7
:102300000895AF92CF92DF92EF92FF920F936901FF
:10231000FA01459125917F01FF0F000BA12C0E942E
:10232000AA100F91FF90EF90DF90CF90AF9008959B
:10233000CF93DF9300D000D000D0CDB7DEB7FC0143
:1023400081818830C0F48230D0F5882309F448C0F8
:10235000813021F13A8329835C834B833A815C810C
:1023600080E090E026960FB6F894DEBF0FBECDBF9A
:10237000DF91CF910895883069F780859185A28596
:10238000B3859D012F5F3F4F84859585A685B785D1
:10239000AD014F5F5F4F7AE066E0DCCF80859185CD
:1023A000A285B3859D012F5F3F4F84859585A685C6
:1023B000B785AD014F5F5F4F77E067E0CBCF80859A
:1023C0009185A285B3859D012F5F3F4F84859585BB
:1023D000A685B785AD014F5F5F4F7AE063E1BACF65
:1023E00080859185A285B3859D012F5F3F4F8485B0
:1023F0009585A685B785AD014F5F5F4F75E065E0B8
:10240000A9CF0F931F93CF93DF9300D000D000D0BC
:10241000CDB7DEB7FC0101811281238134818901AE
:10242000332717FD3095232F4581568167817085AD
:10243000AB01772757FD7095672F1A8309835C835B
:102440004B83202F3A815C8168E071E080E090E06E
:1024500026960FB6F894DEBF0FBECDBFDF91CF91A9
:102460001F910F910895FC0181819281A381B48114
:1024700020812230D1F02430F1F081819281A3813A
:10248000B481CD01BB2797FDB095AB2F9B01281BD5
:10249000390B121613061CF09C01261B370B213832
:1024A00031050CF0118681E00895149681839283A2
:1024B000A383B483E2CF1497F9CF5C98FC012591F4
:1024C000CF012EBD00000DB407FEFDCF6150B1F766
:1024D0005C9A08950F931F93CF93DF93F894909194
:1024E000C503911109C093B7916093BF7894889503
:1024F00093B79E7F93BFF2CF1092C503789400915B
:10250000DD0711E0100F1330C8F511112DC088231D
:1025100079F1C1E0DFEF2FE741E050E0BE0181E556
:1025200097E00E94EA0C62E08CEA90E00E945D1263
:102530002FEF47E051E0BE0181ED93E00E94EA0CED
:1025400062E08EEA90E00E945D12023030F08091ED
:10255000C6038F5F8093C60310E01093DD07DF9101
:10256000CF911F910F910895113029F4823088F690
:10257000C1E0D0E0D0CF8330D9F7CBCF8823C1F3EF
:102580002FE741E050E061E07FEF81E597E00E94B6
:10259000EA0C62E08CEA90E00E945D122FEF47E0C7
:1025A00051E061E07FEF81ED93E00E94EA0C62E090
:1025B0008EEA90E00E945D12CACFCF92DF92EF9236
:1025C000FF926B017C01C114D104E104F10441F0DC
:1025D0000E94A92CA70196010E94012D6B017C018C
:1025E000C701B601FF90EF90DF90CF9008950F9351
:1025F0001F93CF93DF9300D000D0CDB7DEB78C010F
:1026000081E0F801848F62E070E080E090E00E9459
:10261000DD12672B682B692B09F060C06AE675E054
:1026200080E090E00E94DD12DC01CB018C599540E6
:10263000A109B109DC0199278827F80180879187D2
:10264000A287B387848B958BA68BB78B6AE270E0E9
:1026500080E090E00E94DD12DB0199278827F801D5
:1026600084879587A687B787808F918FA28FB38F36
:102670006CE070E080E090E00E94DD12645F7F4FCC
:102680008F4F9F4FCB017727662769837A838B8390
:102690009C8368E070E0CE0101960E94930AF801E5
:1026A0006483758386839783608B718B828B938B16
:1026B00062E070E080E090E00E94DD12672B682B02
:1026C000692B89F484E0F80180830F900F900F90BC
:1026D0000F90DF91CF911F910F91089580E090E0CE
:1026E000ACE9B5E0AACF82E0EECFEF92FF920F9374
:1026F0001F93CF93DF937C018B01C0E0D1E0F9827F
:10270000E8821B830A8369E070E080E090E00E9429
:10271000DD126450710981099109982F872F762F56
:1027200066277D836C8367E070E080E090E00E9424
:10273000DD126150710981099109982F872F762F39
:1027400066277F836E8364E270E080E090E00E9401
:10275000DD12DC01CB010A96A11DB11D8987888796
:1027600062E070E080E090E00E94DD126F5F7F4FDA
:102770008F4F9F4F6A872B9682E0CA34D80709F0A3
:10278000BECF81E08093D507DF91CF911F910F914C
:10279000FF90EF9008952F923F924F925F926F9229
:1027A0007F928F929F92AF92BF92CF92DF92EF92E1
:1027B000FF920F931F93CF93DF93CDB7DEB764974C
:1027C0000FB6F894DEBF0FBECDBF8B8B6C8BF1E6DE
:1027D0008F2EF8E09F2E282E312CD4015C968C9100
:1027E0005C97882309F4D7C51196EC911197E930CD
:1027F00008F038C0F0E0E150FC4E0C94BC2EB2144E
:102800008B14081408140814521408143214E11418
:10281000F401058D10E02081C484D584E684F7841A
:102820004091FB075091FC076091FD077091FE07F6
:1028300080859185A285B3856701FF24D7FCF0943C
:10284000EF2C223011F4045F1F4F020D131D841B67
:10285000950BA60BB70B22EA3BE840E0B601CD0191
:102860000E94FD100B89023009F0EBC3D4015C9685
:102870008C915C97882309F4DAC35D968C915D97FF
:1028800081113EC311968C911197843009F4F3C1E4
:1028900008F0C1C0823009F437C1833009F455C152
:1028A00010E098C25E968C910E94C90C282F082FC8
:1028B00010E0F4013081C484D584E684F78440902C
:1028C000FB075090FC076090FD077090FE07808525
:1028D0009185A285B3856701FF24D7FCF094EF2C86
:1028E000323091F49801275F3F4F8901000F111F8B
:1028F000020F131F020D131D84199509A609B709AC
:1029000024E833E940E0AACF8101F3E02F9F000DD6
:10291000111D1124F1CF5D960C915D97020D132DC1
:10292000111D1C96CD90DD90ED90FC901F976701D6
:10293000FF24D7FCF094EF2C4091FB075091FC074B
:102940006091FD077091FE0718968D919D910D90F5
:10295000BC91A02D841B950BA60BB70B2AE13EEA78
:1029600040E07CCF8091DB079091DC076CE070E069
:102970000E94942E637077278B01000F111F060FA2
:10298000171F020D131DF401C484D584E684F78457
:102990006701FF24D7FCF094EF2C4091FB07509186
:1029A000FC076091FD077091FE0780859185A285E7
:1029B000B385841B950BA60BB70B2CEC3FEA40E0CC
:1029C0004DCF5E968C910E94C90CF401C484D584CD
:1029D000E684F7846701FF24D7FCF094EF2C409045
:1029E000FB075090FC076090FD077090FE07408544
:1029F0005185628573858101F3E08F9F000D111D64
:102A00001124DB01CA0184199509A609B70926E733
:102A100030EB40E023CF853009F4CDC1863009F09A
:102A20003FCF14966D917D918D919C911797509603
:102A3000CD90DD90ED90FC9053976C157D058E0543
:102A40009F0574F42CEC3CE041E050E00E94C92E5C
:102A500000E10E94F32FF4012483358346835783DA
:102A6000D40114964D905D906D907C9017978C9149
:102A7000823009F4DCC0843079F418968D919D91F0
:102A80000D90BC91A02D84199509A609B709F401F0
:102A900080879187A287B387F1E04F1651046F06B4
:102AA0007104E4F0D4011C966D917D918D919C91FF
:102AB0001F975A964D915C91841795070CF0C1C0F1
:102AC0002FE832E041E050E00E94C92E00E10E9470
:102AD000F32FF4012487358746875787C414D5041C
:102AE000E604F7040CF0DCCEF401448555856685D8
:102AF0007785808D918DA28DB38D82E06A177B07DB
:102B000009F0CECE8183CCCEF40180859185A2855B
:102B1000B3852081223081F0243009F0C1CE448178
:102B2000558166817781841B950BA60BB70B808737
:102B30009187A287B387B4CE44815581668177811E
:102B4000840F951FA61FB71FF2CF14966D917D912C
:102B50008D919C91179723EA30EF40E050E00E945E
:102B6000C92E00E10E94F32F69017A01F401C482A9
:102B7000D582E682F78280818230A1F1843061F4CF
:102B800080859185A285B3858C199D09AE09BF0901
:102B900080879187A287B387D4011C966D917D9120
:102BA0008D919C911F9761157105B3E28B0791057B
:102BB00014F52FE832E041E050E00E94C92E00E118
:102BC0000E94F32FF4012487358746875787B0E9A1
:102BD000CB16B2E0DB06E104F1040CF061CE84E038
:102BE000F40190CF80859185A285B3858C0D9D1DC4
:102BF000AE1DBF1DCDCF61307105F9E28F07910584
:102C000034F320E73DEF40E050E00E94C92E00E1A0
:102C10000E94F32FD4011C962C931C971D963C9375
:102C20001D971E964C931E971F965C93D0CFF40170
:102C300080859185A285B385840D951DA61DB71D40
:102C400027CF481759070CF049CF20E73DEF40E068
:102C500050E00E94C92E00E10E94F32FD4011C967F
:102C60002C931C971D963C931D971E964C931E9774
:102C70001F965C9333CF2C9118968D919D910D905A
:102C8000BC91A02DF40142815381FA014081518110
:102C900062817381223009F459C0243099F46A01A9
:102CA0007B01F8E0EF1AF1088C159D05AE05BF0514
:102CB0000CF052C09058AF4FBF4FF40180879187FE
:102CC000A287B387F40184859585A685B78500978B
:102CD000F5E2AF07B1050CF049C09058AF4FBF4FB8
:102CE000F40184879587A687B787F401808591854D
:102CF000A285B3856C017D01C41AD50AE60AF70ADC
:102D0000B701A60184859585A685B7852230C9F1CE
:102D1000243009F0C5CD41305105604F7F4F08F494
:102D2000BFCD81509048A442B1098F3F9F4FA24030
:102D3000B10508F0B5CD80E090E0A6E2B0E0848770
:102D40009587A687B787168E85E0DCCE6A017B0162
:102D5000F2E0EF1AF108A8CFC816D906EA06FB067A
:102D60000CF0B0CF9058A109B109A7CF81309105DF
:102D7000F8E2AF07B1050CF4B8CF9058A109B1093A
:102D8000AFCF41505109684F7F4F4F3F5F4F6F406A
:102D9000710508F085CD81509048A442B1098F3F5C
:102DA0009F4FA240B10508F07BCD80E090E0A6E205
:102DB000B0E0F401C4CF5E968C915E978F5F5E9613
:102DC0008C935E97803A09F096C01296ED91FC9133
:102DD000108613E04091F0025091F1026091F202EE
:102DE0007091F302F40180859185A285B3856C0111
:102DF0007D01C41AD50AE60AF70AB701A6014115F2
:102E0000510561050AEF70070CF0F8C0B45F8087C8
:102E10009187A287B3878091E2078F3009F0F9C0CC
:102E2000C4010E9498112F83388749875A876B877E
:102E30007C870E94EB0629833A834B835C836D83F6
:102E40007E8329813A814F815885C901860F911D62
:102E5000481759070CF0DDC08B85840F952F911D05
:102E6000281739070CF0D5C02B813C8149855A853C
:102E7000C901870F911D481759070CF0CAC08C85EE
:102E8000840F952F911D281739070CF0C2C0D4016B
:102E900011968C911197883008F0B9C05D969C917D
:102EA000813008F419C19111B4C08AE00E94CD06A6
:102EB00081E0F401858F84859585A685B785BD0160
:102EC0006A5F7F4FC090FB07D090FC07E090FD0742
:102ED000F090FE0780859185A285B3858C199D09A8
:102EE000AE09BF091C96CD010E94751361E087E011
:102EF0000E94440E8EC08F3D09F0D2CC86E070CE89
:102F00008F5F5D968C935D978C3009F0C9CC5C9691
:102F10001C925C975D961C928091D6079091D70782
:102F20008815990531F41092D7071092D6071092A0
:102F3000DA0762E070E080E090E00E94DD12AB0111
:102F4000BC018091F0029091F102A091F202B09147
:102F5000F302452B462B472B09F069C124E0F4010D
:102F60002083AA50BA4F80879187A287B387848B2A
:102F7000958BA68BB78BD40111968C9111978230CB
:102F800018F082E011968C9381E0F401848F158E05
:102F90006AE270E080E090E00E94DD12DB01992798
:102FA0008827F40184879587A687B787808F918FBC
:102FB000A28FB38F6CE070E080E090E00E94DD12A1
:102FC000645F7F4F8F4F9F4FCB01772766276983C1
:102FD0007A838B839C8368E070E0CE0101960E9427
:102FE000930AD40114966D937D938D939C931797B8
:102FF000F401608B718B828B938B19C0413051052A
:10300000610576400CF407CFBC50F40100CF883046
:10301000D1F1123009F095C09092D7078092D6076F
:10302000F0ECF093DA0761E088E00E94440EFC893E
:10303000FF2339F08091D6079091D707892B09F4A7
:10304000A0C03FE1830E911C87E9881689E09806AD
:1030500009F0C3CB64960FB6F894DEBF0FBECDBFA8
:10306000DF91CF911F910F91FF90EF90DF90CF9064
:10307000BF90AF909F908F907F906F905F904F9098
:103080003F902F9008955D968C918111C2CF8AE078
:103090000E94CD0681E0F401858F84859585A68503
:1030A000B785BD016A5F7F4FC090FB07D090FC07DA
:1030B000E090FD07F090FE0780859185A285B3859D
:1030C0008C199D09AE09BF091C96CD010E9475138C
:1030D000F1E2F09310080ACF91119BCF69E270E002
:1030E00080E090E00E94DD12AB01BC01485D5F4FC3
:1030F0006F4F7F4F8091E802C82EC40EDD24DD1C87
:103100009601203531059CF4682F640F6093E80226
:103110008091E90281110FC080E6D82ED092E90299
:10312000EBE0D4015D96EC9361E082E0E1CE80E5D6
:103130008093E802EDCF843598F7805E8093E902B2
:10314000EFCF133009F073CF1092D7071092D60744
:103150008AEE92E00E94C20C00E8C02EC092EB0200
:103160008091EA02811105C081E08093FA021092F9
:10317000FB0261E084E00E94440EDC88DD2009F45B
:1031800060CFD40111968C911197823009F059CFFC
:103190008091DB079091DC0783709927892B09F0D8
:1031A00050CF18964D915D916D917C911B978091B8
:1031B000F0029091F102A091F202B091F302841B0F
:1031C000950BA60BB70B0097E4EDAE07EEEFBE072D
:1031D0000CF437CF0197AC42B1400CF032CFD401A0
:1031E0005C968C915C97882309F42BCF5D968C912B
:1031F000811127CFEAE4F2E0FA8BE98BA989BA8939
:1032000018968C91882339F0F40180818230A9F0DE
:10321000843009F474C009891A89075F1F4F1A8B1B
:10322000098B27E732E02017310741F70ACF22E068
:10323000F4012083A65FB54096CE40855185628516
:103240007385E989FA8980819181A281B38184178C
:103250009507A607B707FCF2841B950BA60BB70BC7
:10326000AC01BD01645C7F4F413051056847710579
:1032700090F6F40144805580668077806C017D0172
:10328000FF0CCC08DC2C76019C01AD016C2D7C2D53
:103290008C2D9C2D00E10E94DA2F73016201FF0C3E
:1032A000CC08DC2C7601CD86DE86EF86F88A5201CA
:1032B0006301ED84FE2C0E2D1E2D0E94052FDA01D8
:1032C000C90152970197A440B10508F0A4CFE3E0EB
:1032D000D4011196EC931197C988DA881396DC9281
:1032E000CE9212979092D7078092D60780ECD82E74
:1032F000D092DA0761E088E00E94440E8CCF4085CE
:10330000518562857385E989FA8980819181A281DD
:10331000B3818C019D01265F3F4F40175107620723
:1033200073070CF478CF841B950BA60BB70BAC017D
:10333000BD016E5C7F4F413051056847710508F053
:103340006ACFF40144805580668077806C017D01EE
:10335000FF0CCC08DC2C76019C01AD016C2D7C2D82
:103360008C2D9C2D00E10E94DA2F73016201FF0C6D
:10337000CC08DC2C7601CD86DE86EF86F88A5201F9
:103380006301ED84FE2C0E2D1E2D0E94052FDA0107
:10339000C901569697CF9B89923009F052CE47CEFD
:1033A000CF92DF92EF92FF920F931F93CF93DF9311
:1033B00000D000D0CDB7DEB7182FE091EE02F0E0DC
:1033C000E55EFC4F8081082E000C990BAA0BBB0B0D
:1033D000DC019927882789839A83AB83BC8360E1CA
:1033E00070E0CE0101960E94930AC090F002D09046
:1033F000F102E090F202F090F302C60ED71EE81E32
:10340000F91EC092F002D092F102E092F202F09224
:10341000F302E091EF02F0E0E55EFC4F808187FD72
:10342000815F8595859585958595082E000C990B6E
:10343000AA0BBB0BDC01992788274091F40250911D
:10344000F5026091F6027091F702840F951FA61F96
:10345000B71FB7FD69C08093F4029093F502A09363
:10346000F602B093F7028091F4029091F502A091D8
:10347000F602B091F7020197AB42B10564F080E02B
:1034800090E0ABE2B0E08093F4029093F502A09359
:10349000F602B093F7028091FA028823C1F180917D
:1034A000FB028833A0F510FD32C08F5F8093FB02D2
:1034B0008A3069F581E08093D80780E18093E20744
:1034C0008091F4029091F502A091F602B091F7027A
:1034D000BD016A5F7F4F0091FB071091FC072091AF
:1034E000FD073091FE078091F0029091F102A091CA
:1034F000F202B091F302801B910BA20BB30B169654
:10350000CD010E94751361E080E00E94440E0F908F
:103510000F900F900F90DF91CF911F910F91FF901F
:10352000EF90DF90CF9008951092F4021092F50280
:103530001092F6021092F70296CF1F920F920FB6DA
:103540000F9211248F939F938091E1009091E1005D
:10355000937F9093E10083FF0FC01092E90091E008
:103560009093EB001092EC0092E39093ED00109298
:10357000F80798E09093F00082FF22C093E09093C8
:10358000E9009091F200992319F09AE39093E800F2
:103590009091E907992341F09091E9079150909318
:1035A000E907911101C05D9A9091F707992341F0C5
:1035B0009091F70791509093F707911101C0289AC5
:1035C00084FF18C08091E2008E7E81608093E200CB
:1035D0008091E1008F7E8093E1008091EA078E7EEA
:1035E00080618093EA079F918F910F900FBE0F909B
:1035F0001F90189580FFF7CF8091E2008E7E80614A
:103600008093E2008091E1008E7E8093E1008091C2
:10361000EA078E7E8160E5CF1F920F920FB60F9260
:103620001124CF92DF92EF92FF920F931F932F936B
:103630003F934F935F936F937F938F939F93AF933A
:10364000BF93EF93FF93CF93DF93CDB7DEB76C9724
:10365000DEBFCDBF1092E9008091E80083FF25C056
:1036600068E0CE0145960E943D0982EF8093E80014
:103670008D8987FF39C09091E80090FFFCCF982F8B
:10368000907609F034C19E894F89588D2F89F88C26
:10369000911131C0803861F58091E8078093F10085
:1036A0001092F1008EEF8093E8006C960FB6F894BC
:1036B000DEBF0FBECDBFDF91CF91FF91EF91BF91E4
:1036C000AF919F918F917F916F915F914F913F91BA
:1036D0002F911F910F91FF90EF90DF90CF900F905F
:1036E0000FBE0F901F9018959EEF9093E800C7CFE4
:1036F0001092F100D5CF913059F48111D3CF4130E0
:10370000510581F68091E8078D7F8093E807CACF45
:10371000933049F48111C6CF4130510519F680919B
:10372000E8078260F2CF953041F48091E80080FF95
:10373000FCCF20682093E300B5CF963009F0A9C0F4
:103740000B8D1C8D22E01092E9001092E60710927A
:10375000E507F2122EC01092E4071092E3070E94D0
:103760000C091F8299E09983FA8291E09E8390EA86
:1037700098879AEF99872091E5073091E607275FB0
:103780003F4F3C832B838D831092E9001092E60714
:103790001092E5071093E4070093E30749E050E037
:1037A000BE016F5F7F4F80E00E94E6080E940C0917
:1037B00079CF1093E4070093E3070E94F007DC0140
:1037C00012960D911C910115110509F451C1D801F2
:1037D000ED91FC910480F581E02DBE016B5E7F4F81
:1037E000C8010995009709F03EC1F80100851185CF
:1037F000EACFF3E0FF120EC08F89882309F440C09E
:10380000823061F440E867E08AE09DE00E94B308FE
:10381000811148CF81E28093EB0047CF813029F4BA
:1038200040E86BE08EEF9CE0F1CF833099F70E9487
:10383000F007DC011296ED90FC908E010F5F1F4F98
:103840006801E114F10479F0D701ED91FC91068053
:10385000F781E02DB801C7010995080F111DF70187
:10386000E084F184EECFD8011C92F6010190002093
:10387000E9F73197BF016C197D0940E0C601C6CF59
:1038800068EE7CE0FB01449150E080E80E94E6088D
:1038900009CF973009F4BECF983021F481E08093AE
:1038A000F10000CF993009F0FDCE837009F0B2CF5E
:1038B000EBE7F3E081E031E096E32191222371F020
:1038C0008093E9003093EB00DF0111972C91209356
:1038D000EC009093ED008F5F873079F78EE780934F
:1038E000EA001092EA008F898093F807DBCE8B8D77
:1038F0009C8D1092E9001092E6071092E5079093D4
:10390000E4078093E307898D811192C08E899D8998
:10391000913A49F4813209F07DCF47E050E06FEDF4
:1039200072E080E0B3CF913209F074CF833269F452
:103930008F89988DB0E0A0E08093DB029093DC0249
:10394000A093DD02B093DE02ADCE803269F48091A7
:10395000E80082FFFCCF67E08FED92E00E943D0916
:103960008BEF8093E8009ECE823209F09BCE8F8948
:103970008093E602EEEFFFE7859194918B3F9C4D9B
:1039800051F1E0E0F8E08091DF029091E002A09137
:10399000E102B091E202803B9440A105B105F1F44F
:1039A0008091E60280FD1AC0EE3F8AE0F80789F5B3
:1039B00087E797E791838083809160008093E70792
:1039C00088E19BE00FB6F894A895809360000FBE45
:1039D0009093600067CEEEEFFAE0D5CF80819181C1
:1039E0008737974709F05ECEA8958091600088617F
:1039F000809360008091E70780936000EE3F2AE0AB
:103A0000F20789F08091FE0A9091FF0A91838083EA
:103A100049CE808191818737980751F29093FF0AB0
:103A20008093FE0AC5CF1092FF0A1092FE0A3ACE8A
:103A30000E94F007DC0112960D911C9101151105F1
:103A400009F4E8CED801ED91FC910190F081E02DD0
:103A5000BE016B5E7F4FC8010995811123CEF8012D
:103A600000851185EBCF181619060CF41BCED2CEAB
:103A7000F1E0FF12BECE6CEE7CE004CF0F920FB6E9
:103A80008F939F93EF93FF938091C8038D5F8D3742
:103A900008F08D578093C803E9ECF3E080818E4FE6
:103AA000808391819F4F918382818F4F8283838115
:103AB0008F4F8383EDECF3E080818F5F8083818182
:103AC0008F4F818382818F4F828383818F4F838346
:103AD0008FB18F6066991C9B88278F3681F4809107
:103AE000C703981B963068F0E0E0F8E087E7808332
:103AF000818388E180936000F0936000FFCF909312
:103B0000C703FF91EF919F918F910FBE0F90189572
:103B10001F920F920FB60F921124EF92FF920F9304
:103B20001F932F933F934F935F936F937F938F9345
:103B30009F93AF93BF93CF93DF93EF93FF938091C6
:103B4000D307882391F18091B003811104C0809143
:103B5000E107882351F140919800509199005695C2
:103B60004795569547958091B00381113BC030E051
:103B700020E08FEF9EE36091E107662309F499C08E
:103B8000E2EAF3E06191662309F493C0A191B19157
:103B9000E091A003F091A1034E0F5F1F4A175B074E
:103BA00008F461C04A1B5B0BF9CF8FEF9FEF909336
:103BB000990080939800FF91EF91DF91CF91BF9191
:103BC000AF919F918F917F916F915F914F913F91B5
:103BD0002F911F910F91FF90EF900F900FBE0F90BC
:103BE0001F901895A091AE03B091AF0384E0F82E1A
:103BF000C6EAD3E0E1EBF3E08FEF9EE3E190619161
:103C000071918B01E11014C02296FA94F110F6CF55
:103C10006091DF076A9F90016B9F300D11243595ED
:103C20002795359527953595279535952795A3CFD4
:103C300028813981240F351F2617370718F0261BD6
:103C4000370BFACF769567952617370718F4AE0D20
:103C5000B11D8B0129933993021B130B0817190708
:103C6000A0F6C801D2CFFD01F695E79570E04E179A
:103C70005F0720F0719561957109FD01A0EAB3E03D
:103C80004D935D93E41BF50BE817F90708F4CF019A
:103C9000E091E007E69FA001E79F500D11245595A4
:103CA0004795559547955595479555954795240FB3
:103CB000351F880F991F880F991F813044E09407A2
:103CC000A8F0019788279C7F9C5F90939900809330
:103CD0009800293731056CF428388FEF38075CF0ED
:103CE00020581092BF002093CF0065CF80E094E071
:103CF000ECCF28E7F5CF28E8F3CF1F920F920FB64D
:103D00000F9211248F939F9382E496E09093890001
:103D10008093880081E08093C5039F918F910F90DD
:103D20000FBE0F901F901895109214081092130850
:103D300088EE93E0A0E0B0E0809315089093160819
:103D4000A0931708B093180885E893E090931208A1
:103D5000809311088FEF9FEF90931E0880931D08AA
:103D600081E0809398098093990987E080939A096C
:103D700010929C0910929B0910929E0910929D0925
:103D8000E1E6F8E094E081E090838183148215827B
:103D9000168217821086118612861386148615865F
:103DA00016861786108A118A128A138A148A158A2F
:103DB000168A178A108E118E128E138E148E158EFF
:103DC000168E7F9629E0E739F207F1F60895CDB710
:103DD000DEB7E097DEBFCDBF789483E084BD83E09B
:103DE00085BD81E080936E00E1E8F0E083E08083B0
:103DF000E0E881E08083E1E983E08083E0E981E03D
:103E00008083E1EC87E08083E3EC81E08083E0EC79
:103E100082E08083E2EC81E08083EAE787E08083D0
:103E2000806880831092F8071092E8071092EA07E2
:103E30008091D70081608093D70080EA8093D8007A
:103E400089B5806189BD89B5826089BD09B400FEEC
:103E5000FDCF81E090E00E94E0098091D8008F7C46
:103E600080618093D8008091E000807F8093E000A3
:103E70008091E1008E7E8093E1008DE08093E200EE
:103E8000559A209A81EC80937C0081EF85B987EE6A
:103E900084B982E38BB982EF8AB9769A6E9880EF03
:103EA00081BB10BA80E58CBD81E08DBD0E94F40914
:103EB0005F9A0E94F4095C98E0EBF0E085918EBD7A
:103EC00000000DB407FEFDCFED3BC1F75C9A81E821
:103ED0008093640011E01093650062E08DEB90E048
:103EE0000E945D1268E08FEB90E00E945D129FB728
:103EF000F89422E436E0309389002093880003E0B0
:103F0000009380008BE180938100109285001092D5
:103F1000840080916F00826080936F009FBF5E9AE3
:103F2000E4E1F0E087E69EEF60EF7FEF25913591C9
:103F3000559145912851354909F4CA018093D1071B
:103F40009093D20725913591559145912851354946
:103F500009F4BA016093F9077093FA078BEA0E949B
:103F6000D8090E9485070E94E60D86E582BF82E49B
:103F70008093C0001093C30080E48093C40010922B
:103F8000BF008FE78093D1001092900089E080936A
:103F9000910080919A09809FC00111249595879581
:103FA0008093DF073E9A3F9A1093D3075E988091E3
:103FB00010089BEA899F812D112481FD23C080E098
:103FC0000E946A125E9A8091E207833108F060C015
:103FD000E82EF12CF701E151F04E0C94BC2E042098
:103FE00004200420042004207A209B209B209B2076
:103FF0009B209B209B209B209B20C121AE22AE2298
:10400000AE22AE2283E0DCCFC701880F991F8E0D50
:104010009F1D0091DD07080F192F111D28EF31EBAF
:1040200040E070E060E090E080E00E943311809119
:10403000DB079091DC070C9761F41092DC0710927B
:10404000DB070FEFE01AF00A13E0E122FF24E09211
:10405000E2070E94040D8823D9F08091DB0790913C
:10406000DC0701969093DC078093DB078091D407EF
:10407000803218F48F5F8093D4070E940F0D88233D
:1040800039F08091D407803219F485E08093E207FB
:1040900080919B0990919C0920919D0930919E09E6
:1040A0002817390720F490939E0980939D090E9458
:1040B0007E0E811104C08091DE070E94C20E909195
:1040C000E10780919A0991110C943B2C53E0859F54
:1040D000C0011124959587958093DF0780E198E0D2
:1040E0000E94C20C80E090E0892B09F45FCF0E940F
:1040F00000005CCF86E08093E2071092D407109214
:10410000FB071092FC071092FD071092FE07A1E634
:10411000EA2EA8E0FA2E07E919E0B2E0DB2EC7018B
:104120000E94F712D7011196DC92BFE1EB0EF11C51
:104130000E151F05A1F70E94040D882349F1009177
:10414000E2078091DB079091DC0701969093DC07F2
:104150008093DB070E940F0D182F0650073088F45C
:10416000E02FF0E0EA54FF4D0C94BC2E41214C218D
:104170005A21BD2063217D2192211C7088E009F025
:1041800088C08091D407883418F48F5F8093D40757
:10419000C090DD07D090E207EC2CF12C870124EBD6
:1041A00039E541E066E170E090E080E00E94331183
:1041B00024EB39E541E066E170E080E690E00E94A2
:1041C0003311E091D407E695F0E0EB5AFC4F6081A3
:1041D000062E000C770B2CE432E341E090E080E007
:1041E0000E94FD108AEF8D0D23E0829F000D111DAE
:1041F00011242AE43AEE40E068E270E090E080E0CA
:104200000E94FD1086EF8D0D8330B0F580919809E6
:10421000882351F087012CE33AEE40E06CE270E035
:1042200089E190E00E94FD1080919909882351F066
:1042300087012CE33AEE40E065E370E089E190E02D
:104240000E94FD1080919809811105C08091990903
:104250008701882341F080919A09870133E0839F89
:10426000000D111D11242AEF31EE40E06AE270E0EA
:1042700084E590E00E94FD1060E08C2D0E94CB133D
:1042800007CF86FF03C087E08093E2078EE013FF2D
:1042900078CF8093E20775CF85FF03C086E08093D7
:1042A000E20716FF03C088E08093E2078AE013FD6F
:1042B000F0CF67CF85FF03C087E08093E20789E0F6
:1042C00013FDE7CF5ECF83FF0CC08091980991E08A
:1042D000892780939809882369F08091DE070E94DE
:1042E000C20E87E012FD1BC08091E2078F5F14FDB4
:1042F000D0CF47CF0E94E60DF4CF83FF06C0809158
:10430000990991E089278093990912FF03C087E0FA
:104310008093E20717FFE8CF8091E20781508093F6
:10432000E207E2CF85FF0FC080919A09882359F0F8
:10433000815080939A09E3E08E9FC00111249595E6
:1043400087958093DF0716FF0FC080919A09873009
:1043500058F48F5F80939A09F3E08F9FC001112476
:10436000959587958093DF0712FF05C087E08093BE
:10437000E2070E94150717FF04CF8091E2078150E2
:1043800088CF1092D80780E090E0A4E3B0E080935B
:10439000F0029093F102A093F202B093F30280E056
:1043A00090E0ACE0B0E08093F4029093F502A0932B
:1043B000F602B093F7021092FA021092FB0281E12A
:1043C0008093EE0282E08093EC0280E58093E80225
:1043D0001092E90285E08093EA021092EB0201E676
:1043E00018E0F12C62E0E62E78E0D72ECC24C394BE
:1043F000C8010E94F712F11055C1D80111961C9204
:10440000F394015E1F4FFAE0FF12F2CFE0E0F1E01B
:10441000118610863B9602E0EA34F007C9F7109245
:10442000B2021092BC021092C6021092D0021092F8
:10443000DA021092800210928A0210929402109274
:104440009E021092A8020AE412E0BB24B394C12C8D
:10445000D12C53E3E52EF12CD8011896BC9268E3D9
:104460007BE080E090E00E94DD126C59754081098C
:104470009109CB0177276627F801608371838283D6
:104480009383C482D582E682F782075F1F4FB2E032
:1044900007371B0709F780E090E0A5E0B0E08093C4
:1044A0004A0290934B02A0934C02B0934D0280E0DD
:1044B00090E0ADECB0E08093530290935402A0934F
:1044C0005502B093560280E090E0A5E9B1E08093F8
:1044D0005C0290935D02A0935E02B0935F0280E065
:1044E00090E0ADE5B2E08093650290936602A09300
:1044F0006702B093680280E090E0A5E2B3E08093A9
:104500006E0290936F02A0937002B09371028FE0DD
:104510008093E20710929C0910929B091092FB076E
:104520001092FC071092FD071092FE0710920308EC
:1045300010920408109205081092060810920708BD
:10454000109208081092090810920A0810920B089D
:1045500010920C0810920D0810920E080E94040D83
:10456000882309F47AC10091DB071091DC070F5F03
:104570001F4F1093DC070093DB07C8019170892B54
:1045800049F480919B0990919C09019690939C0914
:1045900080939B098091DA07882319F081508093DA
:1045A000DA070E940F0DB82E8091E207803109F4DE
:1045B00007C6813109F426C68F3009F02EC6A090B7
:1045C000D907802F0E94D0190E946C0B8091EE02B7
:1045D0000E94DC0A0E941F0D60E170E080E090E024
:1045E0000E94DD12672B682B692B79F407E712E034
:1045F00089EA92E0F8012185222311F40C944F2CD2
:10460000065F1F4F80179107A9F70E94540DB2FE55
:1046100003C081E18093E207B3FE2AC08091EE02DD
:104620008E3031F109EA12E08BED92E0F80121853C
:104630002111DDC060E085E00E94440E81E0D801D8
:1046400019968C938091F4029091F502A091F60254
:10465000B091F7021696F80185839683A783B087F9
:104660008091EC02823009F4A2C0843009F4AFC01A
:104670000091DB071091DC07C80183709927892B13
:1046800009F0E3C0A5FE46C51092F8028091EE0243
:10469000803108F4B3C091E09093F8028150809388
:1046A000EE02AEC0B3E0BF1518F0F801C182A8CE8B
:1046B000F5E0FF1520F0D8011196DC92A1CEF801AB
:1046C000E1829ECE4085518562857385625F7F4F12
:1046D000F8014183528363837483808396CF8F5F15
:1046E0008617170611F00CF090CF2CEF280F8A30A8
:1046F00008F4282FC22ED12C299F90011124A90142
:104700004F59574F7A01DA015C962C91222339F3E5
:104710004091F0025091F1026091F2027091F30227
:10472000F70180859185A285B385841B950BA60B27
:10473000B70B0197AC49BF4F8F3F9F4FA74CB105B7
:1047400020F460E086E00E94440E81E0D8011996D2
:104750008C938FE18C9DF0018D9DF00D1124EF590C
:10476000F74F84859585A685B785AC01BD016C5F43
:104770007F4FD80115964D935D936D937C93189759
:10478000D7018C91823009F49DCF843009F03DCF60
:10479000408551856285738562507109D8011196F3
:1047A0004D935D936D937C9314978C932ECF409192
:1047B000F0025091F1026091F2027091F302625F97
:1047C0007F4F4183528363837483808351CF4091B1
:1047D000F0025091F1026091F2027091F302625086
:1047E00071094183528363837483808341CF065F61
:1047F0001F4F8017910709F019CF3ACF81114ECF83
:104800008091EE028E3008F083C484E08093EC0245
:10481000A7FE9CC41092F9028091EF02803130F023
:1048200082508093EF0281E08093F9028091EF0241
:10483000882319F081508093EF028091EF028E302F
:1048400008F082C481E08093ED0289EE92E00E943C
:10485000C20C8BEE92E00E94C20CF091DD07FDA32A
:104860008091FB079091FC07A091FD07B091FE0796
:104870004090030850900408609005087090060866
:1048800073016201C81AD90AEA0AFB0A6091070893
:10489000709108088091090890910A086C0D7D1D9F
:1048A0008E1D9F1D20E630E0B9010E94A82E4C010C
:1048B000C301B2016C0D7D1D8E1D9F1DB9010E94AB
:1048C000A82E8B015C0160910B0870910C088091FF
:1048D0000D0890910E086C0D7D1D8E1D9F1DB90158
:1048E0000E94A82EFB019FA38EA3509010088BEA74
:1048F000589E512C112451FA552450F824E030E0F0
:10490000C801B9010E94A82E6C01CF01B9010E9413
:10491000A82E1C010DA1E02EF12C3701152D23E04E
:104920001202600C711C1124830124EB39E541E073
:1049300066E170E0C401805691090E94331124EBB6
:1049400039E541E066E170E0C4010E94331124EBD7
:1049500039E541E066E170E0C401805A9F4F0E9452
:10496000331124EB39E541E066E170E0C401805485
:104970009F4F0E9433119090E2078091D8078823BF
:1049800009F44FC430E193124CC4E091FB02E431CE
:1049900078F0F0E0EF5BFC4F6081062E000C770BA7
:1049A00087012EE43EE341E090E080E00E94FD10AC
:1049B000C601837099278C01000F111F080F191F62
:1049C0000E0D1F1D26EF34E641E06EE170E0C501DB
:1049D000805691090E94FD10C601079683709927A1
:1049E0008C01000F111F080F191F0E0D1F1D26EF40
:1049F00034E641E06EE170E0C5010E94FD10C601A1
:104A00000696837099278C01000F111F080F191F3C
:104A10000E0D1F1D26EF34E641E06EE170E0C5018A
:104A2000805A9F4F0E94FD1045E0C40ED11C53E0F8
:104A3000C522DD248601000F111F0C0D1D1D0E0D5A
:104A40001F1D26EF34E641E06EE170E0C5018054A1
:104A50009F4F0E94FD1051103EC18091FA028823A1
:104A600039F08091FB02883319F08B3008F033C1A4
:104A700080919B0990919C0968EE73E00E94942EAE
:104A80009B01220F331F260F371F2E0D3F1D40E7BE
:104A900054E070E060E08FE690E00E948111809128
:104AA0009B0990919C0964E670E00E94942E9C0101
:104AB000220F331F280F391F2E0D3F1D40E754E0F2
:104AC00070E060E087E790E00E9481118091EB0246
:104AD00084FD10C08091EA02970193E0899F200D28
:104AE000311D112440E754E070E060E08FE590E074
:104AF0000E94811197014FE554E061E070E088E683
:104B000090E00E9481118091E8029701882309F4C6
:104B1000C2C382958F7009F0C1C38091DB07909169
:104B2000DC078F719927409708F0B5C347EE51E035
:104B300061E070E082E090E00E9481118091FA02D1
:104B4000882329F08091FB028B3008F0C4C080914B
:104B5000F6026AE00E94882E182FDD24D394BDA1AE
:104B6000B111D12C0D2D21E040E366E088E20E94D6
:104B7000520C26E041E060E08FE30E94520C612F6E
:104B800070E041E08FE390E00E948E09EDA1BB242C
:104B9000B394E23008F0B12C01E618E047E9C42EE6
:104BA00049E0D42E5AE0A52ED8015C968C9188233A
:104BB00041F18091F0029091F102A091F202B09146
:104BC000F302F8014084518462847384481A590ABC
:104BD0006A0A7B0A86856A2D0E94882E682F70E0FB
:104BE0002301772457FC7094672CC20157FCCF96A1
:104BF00026E0959587952A95E1F74B2DCF960E9453
:104C00008E09015E1F4FC016D10671F68091DB0739
:104C10009091DC078F739927809708F05CC00AE4B5
:104C200012E087E7C82E82E0D82E9AE0B92ED8018C
:104C300018968C91882349F18091F0029091F102AD
:104C4000A091F202B091F302F8014080518062809D
:104C50007380481A590A6A0A7B0A86816B2D0E9462
:104C6000882E682F70E02301772457FC7094672CFE
:104C7000C20157FCCF96A6E095958795AA95E1F7D6
:104C800041E0805C9F4F0E948E09075F1F4FC01656
:104C9000D10669F6E091D607F091D7073097D9F0A1
:104CA0008091F0029091F102A091F202B091F30292
:104CB0004085518562857385481759076A077B07C8
:104CC0000CF0F6C2970143ED51E061E070E084E240
:104CD00090E00E948111FFE09F12D5C34091FB0735
:104CE0005091FC076091FD077091FE078091F002E2
:104CF0009091F102A091F202B091F302841B950B06
:104D0000A60BB70B4091F4025091F5026091F602A8
:104D10007091F7028B01332717FD3095232F0DA7D4
:104D20001EA72FA738AB09EA12E04A2E512C4701E3
:104D300023E0820E911C3DA1A32EB12CF7E96F2E2A
:104D4000F9E07F2ED80119968C91882371F180911A
:104D5000F0029091F102A091F202B091F302F801F9
:104D60002181328143815481281B390B4A0B5B0B13
:104D70009A01552737FD5095452F8081823009F4DF
:104D8000A7C2843091F46581768187819085BC01CA
:104D9000992777FD9095892FF201E20FF31F950176
:104DA00041E751E0CF010E946911BDA1B23009F085
:104DB000A7C06091F0027091F1028091F20290918F
:104DC000F302F8012185222309F49AC0BC01992736
:104DD00077FD9095892FC8010E943312C8010E9467
:104DE00001122B8B3C8B4D8B5E8B6F8B788F31E65A
:104DF000C32E38E0D32ED6015C968C915C97882325
:104E000009F477C05D968C91811173C0C6010E9430
:104E100098112D873E874F87588B698B7A8B86E058
:104E2000FE017396DE015F9601900D928A95E1F77F
:104E30004B895C892D893E898F89988D9CA796E046
:104E4000FE013D96DE01599601900D929A95E1F78B
:104E50006D857E85840F952F911D681779070CF05D
:104E600048C08989680F711D461757070CF041C06B
:104E70006F857889A9018CA5480F511D64177507A6
:104E8000C4F58A89860F972F911D281739078CF54D
:104E9000D80119961C9221E0F601258F848595850D
:104EA000A685B785BD016A5F7F4F2091FB073091D2
:104EB000FC074091FD075091FE0780859185A285F2
:104EC000B385821B930BA40BB50B1C96CD010E94DE
:104ED000751361E087E00E94440ED60111968C9113
:104EE000883008F003C2823008F014C2813009F41F
:104EF00007C2EFE1CE0ED11C6C147D0409F07BCF0C
:104F0000065F1F4F2BED32E02017310709F01ACF53
:104F100007E712E0570133E0A30EB11C4DA1C42EE8
:104F2000D12CD80119968C91882371F18091F002CF
:104F30009091F102A091F202B091F302F801218167
:104F4000328143815481281B390B4A0B5B0B9A0138
:104F5000552737FD5095452F8081823009F4E0C1F7
:104F6000843091F46581768187819085BC01992791
:104F700077FD9095892FF201E20FF31F960141E72B
:104F800051E0CF010E946911BDA1B23009F08FC07C
:104F90006091F0027091F1028091F2029091F3021F
:104FA000F8012185222309F482C0BC01992777FDED
:104FB0009095892FC8010E943312C8010E940112E6
:104FC0002B8B3C8B4D8B5E8B6F8B788F0E94EB060F
:104FD0002D873E874F87588B698B7A8B86E0FE0141
:104FE0007396DE01179601900D928A95E1F74B8931
:104FF0005C892D893E898F89988C96E0FE013D96CB
:10500000DE01119601900D929A95E1F76D857E85EE
:10501000840F952F911D681779070CF048C0898976
:10502000680F711D461757070CF041C06F857889CE
:10503000A901490D511D64177507CCF58A89860FA2
:10504000972F911D2817390794F5D80119961C92AE
:105050004091F4025091F5026091F6027091F702CE
:105060006A5F7F4FAB01772757FD7095672F609080
:10507000FB077090FC078090FD079090FE078091E1
:10508000F0029091F102A091F202B091F302861920
:105090009709A809B9091C96BA01CD010E94751398
:1050A00085E00E94CD0661E087E00E94440E065F25
:1050B0001F4FE9EAF2E0E017F10709F032CF209143
:1050C000EE02E22FF0E0E85CFC4F80808091DB078D
:1050D0009091DC0769E070E00E94942E63E070E03C
:1050E0000E94942E6B01FDA5AF2EB12C8091EC0295
:1050F000823009F022C32F3009F420C1203109F495
:105100003CC187012E3009F052C1045F1F4F2FC1EF
:1051100082E07CCBA6FE0FC01092F8028091EE02D6
:105120008D3028F491E09093F8028F5FB8CA8C31EB
:1051300008F066CBFACFC80187709927892B09F050
:1051400067CB0E94B40664CB83E07DCBA4FE13C082
:105150001092F9028091EF028D3030F48E5F8093CF
:10516000EF0281E08093F9028091EF028C3108F028
:1051700064CB8F5F60CB07701127012B09F065CBE3
:105180001092F9029091ED02913079F0933009F08C
:105190005CCB8091EF02803108F457CB8250809332
:1051A000EF0281E08093F90250CB8091EF028D30C5
:1051B00008F04BCB8E5F8093EF029093F90245CBC2
:1051C000802F0E94D0190E946C0B8091EE020E94E9
:1051D000DC0A0E941F0D0E94540DB3FE07C080918F
:1051E000FB02883319F485E08093E2078091DB07A6
:1051F0009091DC0783709927892B09F026CB0E94B8
:10520000B40623CBB3FE03C085E08093E2078FE0B2
:10521000B2FE23CB8093E20720CBB3FE1ECB85E00A
:10522000F9CF8091DA07882309F4C2CBE091D60741
:10523000F091D707309709F4BBCB4091F002509121
:10524000F1026091F2027091F302008511852285CE
:1052500033858091DB079091DC078F7199270417C4
:1052600015072607370784F403E010E0409710F095
:1052700010E000E00E0D1F1D22EB3DE441E060E177
:1052800070E080E290E092CB09E010E0409790F36C
:1052900006E010E0EFCF2E5E3F4F48CC9091E90240
:1052A00094FD4CCCA3E08A9F200D311D11243ECCEF
:1052B00084179507A607B7070CF00DCD97012D5F52
:1052C0003F4F43ED51E061E070E089E590E001CDB2
:1052D0006581768187819085BC01992777FD9095BE
:1052E000892FF201E20FF31F94015ACD883009F0A3
:1052F00000CE84E10E94CD06B1E2B0931008F9CD52
:1053000080919B0990919C090A9690939C098093A7
:105310009B09EFCD80919B0990919C094996F5CF0F
:105320006581768187819085BC01992777FD90956D
:10533000892FF201E20FF31F950121CE03E0809E39
:10534000C00CD11C11248601000F111F0C0D1D1D56
:105350000E0D1F1DB5016D5F7F4F26E733E840E05E
:10536000C20108970E94FD108701015F1F4F24E3CF
:105370003EE740E0B501C20137C013E0819EC00C9A
:10538000D11C11248601000F111F0C0D1D1D0E0DC7
:105390001F1DB5016D5F7F4F26E733E840E0C20176
:1053A00008970E94FD1087010E5E1F4FE0CF0D5F32
:1053B0001F4F24E33EE740E0B501C2010E94FD100B
:1053C00023E0829EC00CD11C11248601000F111F06
:1053D0000C0D1D1D0E0D1F1DB5016D5F7F4F26E7C6
:1053E00033E840E0C20140970E94FD100AE412E059
:1053F000B7E7CB2EB2E0DB2E9DA1A92EB12CD801B0
:1054000018968C91882389F18091DB079091DC07B5
:105410006CE070E00E94942E637077279B01220F4E
:10542000331F260F371F2A0D3B1DF801448055807E
:10543000668077802301772457FC7094672C409115
:10544000FB075091FC076091FD077091FE0780817A
:105450009181A281B381841B950BA60BB70B47ECFE
:1054600050E0B201CD010E946911075F1F4FC016C5
:10547000D10629F661E08091E2078F3009F060E003
:105480008DA10E94CB13C101837099278C01000F5D
:10549000111F080F191F0E0D1F1D28EF3FE741E0D8
:1054A00064E270E08EA19FA1805691090E94FD10D8
:1054B000C1010796837099278C01000F111F080FF7
:1054C000191F0E0D1F1D28EF3FE741E064E270E059
:1054D0008EA19FA10E94FD10C1010696837099279D
:1054E0008C01000F111F080F191F0E0D1F1D28EF33
:1054F0003FE741E064E270E08EA19FA1805A9F4F98
:105500000E94FD1081010B5F1F4F03701127C8011E
:10551000880F991F080F191F0E0D1F1D28EF3FE759
:1055200041E064E270E08EA19FA180549F4F0E94F1
:10553000FD108091E207813161F4FDA10F2F10E091
:1055400020E53AE441E066E170E08CE190E00E9401
:10555000FD108091D507882311F40C944820809188
:10556000DB071092D50700E011E063E00E94882E6F
:105570009DA3D80119968C91882309F4D4C0BDA1AC
:10558000B111BEC0F801E284CE2CD12CBE2D2EE18B
:1055900030E0A0E00E94C22E472F582F692F7727B6
:1055A00067FD7A9586819781841B950B9783868307
:1055B000A481B58125EF30E00E94C22E472F582FDD
:1055C000692F772767FD7A955583448380E890E0BB
:1055D0008C199D0920813181821793073CF49183B6
:1055E000808351954195510955834483D8018D910C
:1055F0009C91119797FF0EC011961C921E921496C3
:105600008D919C91159791958195910915969C93F3
:105610008E931497F801828193818134910534F03F
:1056200020E430E03383228317821682D801129659
:105630008D919C91139797FF04C017961C921E9210
:105640001697F801258128A7220F220B29A7208170
:10565000318148A559A5240F351F31832083278127
:105660002AA7220F220B2BA7AAA5BBA58A1B9B0B3F
:1056700093838283F1846F2D70E090E080E00E943C
:105680006B2D4B015C01F801608570E090E080E0DB
:105690000E946B2D2B013C0120E030E040E05FE3F5
:1056A0000E94CA2D9B01AC01C501B4010E94642D6A
:1056B00087FF07C0F2E0FE1520F4E2E0D8011A9659
:1056C000EC932DEC3CEC4CE45EE3C301B2010E9490
:1056D000CA2D9B01AC01C501B4010E94642D87FF56
:1056E00009C0D8011A968C911A97823018F0E1E01F
:1056F0001A96EC93FF2021F0FA94D8011996FC92A7
:10570000F801B284F1E0F093D507D8011296ED903C
:10571000FC901397CD90DC90BF1268C041E0B701B8
:10572000C6010E948E09055F1F4F4AE452E04017F0
:10573000510709F01ECF0C9448202D3019F12E305E
:10574000F9F033E0839E40011124A5014D5F5F4FC6
:105750003A012C3089F5C80CD91C8601000F111FA5
:105760000C0D1D1D0E0D1F1D26E733E840E0B30193
:10577000C20108960E94FD1087010A5F1F4FF7CDF6
:105780008701C3CC53E0859EC00CD11C1124860137
:10579000000F111F0C0D1D1D0E0D1F1DB5016D5F9E
:1057A0007F4F26E733E840E0C20108960E94FD10D3
:1057B0008701075F1F4FDBCD8DA1082F10E024E389
:1057C0003EE740E0B501C2010E94FD10C80CD91CA3
:1057D0008601000F111F0C0D1D1D0E0D1F1D26E74C
:1057E00033E840E0B301C2014096FECDB0E4EB16D1
:1057F000F10430F421E04B2DB701C6010E944A09A3
:105800002B2C312C3701620C731CB30161507109D0
:105810006034710528F421E04B2DC6010E944A092D
:10582000F7FE02C0F12CE12C57014301E1E46E16B2
:1058300071041CF050E4852E912CA814B9044CF48A
:1058400041E0B501C6010E948E09FFEFAF1ABF0A01
:10585000ECCFC20CD31C21E0C21AD108E814F90421
:105860000CF061CF41E0B701C6010E948E093FEF05
:10587000E31AF30AF3CF282F220F873068F08650FF
:10588000A3E08A9FC0011124959587958093DF0737
:105890002093E0070C946E201092DF07F9CF6AE0A6
:1058A00070E080E090E00E94DD1286E0860F70E0FC
:1058B000675F7F4F9FE10C9470238F929F92AF920E
:1058C000BF92CF92DF92EF92FF92CF93DF93EC01E2
:1058D000688179818A819B816115710581059105B6
:1058E00021F464E279ED8BE597E02DE133EF41E0BF
:1058F00050E00E94012D49015A019B01AC01A7EA29
:10590000B1E40E94202D6B017C01ACEEB4EFA50147
:1059100094010E942E2DC60ED71EE81EF91EF7FE1A
:1059200006C081E0C81AD108E10880E8F80AC882F8
:10593000D982EA82FB82C701B6019F77DF91CF91BE
:10594000FF90EF90DF90CF90BF90AF909F908F909F
:1059500008958F929F92AF92BF92CF92DF92EF9273
:10596000FF926091FC027091FD028091FE02909185
:10597000FF02611571058105910521F464E279ED5D
:105980008BE597E02DE133EF41E050E00E94012DDF
:1059900049015A019B01AC01A7EAB1E40E94202D04
:1059A0006B017C01ACEEB4EFA50194010E942E2D99
:1059B000C60ED71EE81EF91EF7FE06C081E0C81A03
:1059C000D108E10880E8F80AC092FC02D092FD02FA
:1059D000E092FE02F092FF02C701B6019F77FF90AE
:1059E000EF90DF90CF90BF90AF909F908F900895F1
:1059F0006093FC027093FD028093FE029093FF027D
:105A00000895052E97FB1EF400940E94182D57FD53
:105A100007D00E94332D07FC03D04EF40C94182DB0
:105A200050954095309521953F4F4F4F5F4F0895CA
:105A300090958095709561957F4F8F4F9F4F0895FA
:105A40000E94552DA59F900DB49F900DA49F800D91
:105A5000911D11240895B7FF0C94202D0E94202D34
:105A6000821B930B0895A1E21A2EAA1BBB1BFD01FA
:105A70000DC0AA1FBB1FEE1FFF1FA217B307E4072D
:105A8000F50720F0A21BB30BE40BF50B661F771F85
:105A9000881F991F1A9469F7609570958095909565
:105AA0009B01AC01BD01CF010895A29FB001B39F3E
:105AB000C001A39F700D811D1124911DB29F700D17
:105AC000811D1124911D08950E94A62D08F481E0E6
:105AD0000895E89409C097FB3EF4909580957095E1
